:100000000C9434000C9449000C9449000C94490061
:100010000C9449000C9449000C9449000C9449003C
:100020000C9449000C9449000C9449000C9449002C
:100030000C9449000C9449000C9449000C9449001C
:100040000C9449000C9449000C9449000C9449000C
:100050000C9449000C9449000C9449000C944900FC
:100060000C9449000C94490011241FBECFEFD8E036
:10007000DEBFCDBF11E0A0E0B1E0EAE3F1E002C0F5
:1000800005900D92A831B107D9F70E944B000C944E
:100090009B000C940000CF93DF93CDB7DEB7689739
:1000A0000FB6F894DEBF0FBECDBF259A8E010F5E4E
:1000B0001F4FBE01675F7F4FAE01475E5F4F580124
:1000C0006B0180E2E82E88E0E0E0F1E0D5010190EC
:1000D0000D928A95E1F788E0E8E0F1E0D601019021
:1000E0000D928A95E1F788E0E0E1F1E0DE011196FA
:1000F00001900D928A95E1F7F8019B01CE010196DE
:100100004C010DC0E5B8BFEF83ED90E3B1508040E6
:100110009040E1F700C00000E417F507A1F2F1906C
:10012000D9018D919D01D4019D914D018F25891398
:0A013000E9CF15B8E8CFF894FFCF2F
:10013A0000000000010101010000010100000101AD
:08014A000001000100010001A9
:00000001FF
